:03000000020050AB
:1000500075815FE4780079007A007B007C007D0088
:100060007E007F007580FF7590FF75A0FF75B0FF63
:0E007000C2B57534007535007536FF12026595
:10007E0012011EE535B403030200A1D2B512031F0F
:10008E00C2B51201A0E536B4FF030200811200A72B
:10009E000200811201810200A4E536A834B80004E2
:1000AE00F5308010B80104F5318009B80204F5323C
:0E00BE008002F5331201110534E534B4040359
:1000CC001200D022E530B43126E531B43221E532CC
:0E00DC00B4331CE533B434177535001201320D
:0F00EA0012024712030E1202561202FD12011EDD
:0F00F9008012053512015112030EE535B40302D2
:10010800800312011E75340022E53424861202A9E8
:10011800742A1202B52274011202A91202D1748043
:0F0128001202A990034B1202C12274011202A904
:100137001202D174801202A990035C1202C174C02A
:0F0147001202A990036D1202C12274011202A9C3
:100156001202D174801202A990037E1202C174C0E9
:100166001202A990038F1202C1E53524301202B59E
:10017600742F1202B574331202B52274011202A949
:100186001202D174801202A990039A1202C174C09D
:0F0196001202A99003AB1202C1227536FFC2906C
:0E01A500D291D292D29300002094067536318A
:0F01B3000202312095067536320202312096067F
:1001C200753633020231D290C291D292D29300009C
:0F01D200209406753634020231209506753635B5
:1001E100020231209606753636020231D290D29142
:0F01F100C292D293000020940675363702023175
:0F0200002095067536380202312096067536397C
:10020F00020231D290D291D292C293000020940375
:0F021F00020243209506753630020231209615F3
:0F022E00020243C290C291C292C293E5905470F3
:0E023D00B470F91202F07590FF227C32D2B537
:0F024B00120328C2B5120331DCF4227C32D2B583
:0F025A0012031FC2B512033EDCF422C2A2C2A0DF
:0F026900C2A11202E3758030D2A1C2A11202DA43
:0F027800758030D2A1C2A11202CC758030D2A104
:0F028700C2A11202CC74381202A974081202A983
:0F02960074011202A91202D174061202A9740C8B
:1002A5001202A922C2A0F580D2A1C2A11202CC22BB
:1002B500D2A0F580D2A1C2A11202CC22E49360069D
:1002C5001202B5A341C1227F12DFFE227E0F7F33CA
:1002D500DFFEDEFA227E297F32DFFEDEFA227D0393
:0F02E5007E197F64DFFEDEFADDF6227D047E19CE
:0F02F4007F64DFFEDEFADDF6227C147D0A7E19C0
:0F0303007F64DFFEDEFADDF6DCF2227C287D0A65
:0F0312007E197F64DFFEDEFADDF6DCF2227E0A62
:100321007F30DFFEDEFA227E147F32DFFEDEFA222C
:0F0331007D047E167F64DFFEDEFADDF6227D049A
:100340007E177F64DFFEDEFADDF62253454E48411C
:100350003A20202020202020202020004143455307
:10036000534F204C4942455241444F200041425294
:10037000494E444F2E2E2E20202020202000534571
:100380004E484120494E434F52524554412000545B
:10039000454E544154495641200053495354454D0C
:1003A0004120202020202020202000424C4F515569
:0C03B0004541444F202020202020200048
:00000001FF
